:020000040800F2
:100000004011002015020008250C0008770A00089E
:10001000B10B0008ED070008131A000800000000EB
:10002000000000000000000000000000B9120008FD
:10003000F10700080000000069110008CD13000856
:100040002F0200082F0200082F0200082F020008CC
:100050002F0200082F0200082F0200082F020008BC
:100060002F0200082F0200082F0200082F020008AC
:100070002F0200082F0200082F0200082F0200089C
:100080002F0200082F0200082F0200082F0200088C
:100090002F0200082F0200082F0200082F0200087C
:1000A0002F0200082F0200082F0200082F0200086C
:1000B0003114000849140008151500082F02000823
:1000C0002F0200082F0200082F0200082F0200084C
:1000D0002F020008A9170008311800085518000859
:1000E0002F0200082F0200082F0200082F0200082C
:1000F0002F0200082F0200082F0200082F0200081C
:100100002F0200082F0200082F0200082F0200080B
:100110002F0200082F0200082F0200082F020008FB
:100120002F0200082F0200082F0200082F020008EB
:1001300000F002F800F05FF80AA090E8000C82449A
:100140008344AAF10107DA4501D100F054F8AFF277
:10015000090EBAE80F0013F0010F18BFFB1A43F0A5
:100160000103184734300000543000000A444FF0B7
:10017000000C10F8013B13F0070408BF10F8014B06
:100180001D1108BF10F8015B641E05D010F8016B4B
:10019000641E01F8016BF9D113F0080F1EBF10F8AF
:1001A000014BAD1C0C1B09D16D1E58BF01F801CBD2
:1001B000FAD505E014F8016B01F8016B6D1EF9D555
:1001C0009142D6D37047000000230024002500266A
:1001D000103A28BF78C1FBD8520728BF30C148BFAA
:1001E0000B607047642900F07780002070471FB5CE
:1001F0001FBD10B510BD00F037F91146FFF7F7FF2E
:1002000001F0BAFC00F055F903B4FFF7F2FF03BCAC
:1002100001F05AFC0948804709480047FEE7FEE71D
:10022000FEE7FEE7FEE7FEE7FEE7FEE7FEE7FEE7A6
:1002300004480549054A064B70470000D1130008E1
:1002400031010008400B002040110020400D00202B
:10025000400D0020704700000FB4044910B503AAF8
:10026000029800F0D3F810BC5DF814FB080A0020D7
:100270002DE9F0410E460446002020622046E16848
:10028000884730B3252805D0D4E901219047206A5A
:10029000401CF2E7E168204600278847050018D097
:1002A000A5F14100192802D820354FF400673246E5
:1002B000294620462760FFF795FF40B1012804D06A
:1002C000F61D26F007060836D8E7361DD6E728467D
:1002D000DAE7206ABDE8F0812DE9F0410646002406
:1002E00010687529314616A510D0AFF3008000289C
:1002F00002DA404213A507E031688A0701D512A54A
:1003000002E0490704D511A5012401E0AFF3008004
:1003100000210A2206F1240709E0B0FBF2FCB0FB41
:10032000F2F302FB1C00303078541846491C0028B8
:10033000F3D123462A463046BDE8F04100F00CB820
:10034000000000002D0000002B0000002000000035
:1003500070477047704770472DE9F0470D46994642
:100360009246044600F124080168880604D5E06935
:1003700021F01001216000E00120A84201DD471BAF
:1003800000E00027A1697A1902EB0900081AA061B0
:100390002078C00602D42046AFF30080002608E093
:1003A000D4E901211AF806009047206A401C761C07
:1003B00020624E45F4DB2078C0060AD52046AFF314
:1003C000008006E0D4E9012130209047206A401CDB
:1003D0002062381EA7F10107F4DC07E0D4E901210F
:1003E00018F805009047206A401C2062281EA5F1DD
:1003F0000105F3DC2046AFF300802078000602D52B
:100400000220BDE8F0870120FBE70000074B70B534
:100410000D467B4400F011F80446284600F020F811
:1004200010B14FF0FF3070BD204670BD471700007F
:1004300001694A1C02610878704700B58FB0CDE9A8
:1004400001310021059105497944CDE90310114698
:100450006846FFF70DFF0FB000BD0000E5FFFFFF8E
:10046000007B00F080007047754600F02BF8AE4628
:1004700005006946534620F00700854618B020B5B0
:10048000FFF7D6FEBDE820404FF000064FF0000712
:100490004FF000084FF0000B21F00701AC46ACE82C
:1004A000C009ACE8C009ACE8C009ACE8C0098D4699
:1004B000704710B50446AFF300802046BDE81040F9
:1004C000FFF7A2BE00487047DC0A002021B1826815
:1004D00042F00102826003E0826822F00102826041
:1004E0007047000010B504461248844208D101212B
:1004F000401500F067FE0021601500F063FE17E074
:100500000D48844208D10121001500F05BFE002156
:10051000201500F057FE0BE00848844208D1012165
:10052000C80300F04FFE00214FF4004000F04AFEE7
:1005300010BD00000024014000280140003C0140A3
:10054000014600208A6802F004020AB1012000E09E
:10055000002070470146C86C80B2704702460020F8
:1005600013680B400BB1012000E0002070470146EA
:1005700000208A6802F008020AB1012000E0002091
:100580007047000030B502460020002350680F4C31
:1005900020400D790C6844EA05242043506090689F
:1005A0000B4C2040D1E902542C434D7944EA4504D8
:1005B00020439060D06A20F470000C7C641EE4B28A
:1005C000234340EA0350D06230BD0000FFFEF0FF3D
:1005D000FDF7F1FFF0B504460D4600200021092D7E
:1005E00011DDE068A5F10A0606EB4607072606FAC4
:1005F00007F18843A5F10A0606EB460603FA06F161
:100600000843E0600CE0206905EB4507072606FA81
:1006100007F1884305EB450603FA06F1084320611C
:10062000072A0FDA606B561E06EB86071F2606FAAE
:1006300007F18843561E06EB860605FA06F10843C5
:10064000606322E00D2A0FDA206BD61F06EB8607C7
:100650001F2606FA07F18843D61F06EB860605FA21
:1006600006F10843206310E0E06AA2F10D0606EBF4
:1006700086071F2606FA07F18843A2F10D0606EB4E
:10068000860605FA06F10843E062F0BD816841F094
:1006900008018160704721B1826842F4A002826043
:1006A00003E0826822F4A00282607047816841F012
:1006B000040181607047000000B587B001214FF44C
:1006C000017000F06FFD4FF4004000F04FFD02207C
:1006D000ADF8040000208DF8070001A9174800F0CC
:1006E000C1F81748FFF7FEFE002002908DF80C00BD
:1006F0008DF80D004FF4602004900020059001203B
:100700008DF8180002A90E48FFF73CFF01210C48A4
:10071000FFF7DCFE0A48FFF7B9FF00BF0848FFF704
:1007200026FF0028FAD10648FFF7C0FF00BF0448A3
:10073000FFF706FF0028FAD107B000BD000801400E
:100740000024014010B586B004460121880400F061
:1007500019FD0121082000F025FD4FF48060ADF85F
:10076000140003208DF8160018208DF8170005A935
:100770001C4800F077F84FF40060ADF81400042036
:100780008DF8170005A9174800F06CF827208DF8A0
:10079000000003208DF801008DF8020001208DF883
:1007A0000300684600F040FA01940020ADF808000C
:1007B000ADF80A00ADF80C00ADF810000C20ADF853
:1007C0000E0001A9084801F0B3F8012240F22551BA
:1007D000054801F087F80121034801F04DF806B003
:1007E00010BD0000000C01400048004000BFFEE7C3
:1007F0007047000008B501213C2000F0D3FC4FF405
:100800000060ADF8000028208DF8030069460D480F
:1008100000F028F84FF44040ADF8000069460A485F
:1008200000F020F840F20A60ADF800006946074881
:1008300000F018F80420ADF800006946044800F004
:1008400011F808BD00080140000C014000100140F3
:10085000001401400146002901DD0A4600E04A4239
:10086000104670472DE9F041024600250026002081
:1008700000230024002791F803C00CF00F0591F825
:1008800003C00CF0100CBCF1000F03D091F802C0B3
:100890004CEA050591F800C0BCF1000F31D0146896
:1008A00000202BE04FF0010C0CFA00F3B1F800C06F
:1008B0000CEA03069E4220D183004FF00F0C0CFA85
:1008C00003F7BC4305FA03FC4CEA040491F803C0A7
:1008D000BCF1280F06D14FF0010C0CFA00FCC2F855
:1008E00014C00AE091F803C0BCF1480F05D14FF0E5
:1008F000010C0CFA00FCC2F810C0401C0828D1D32F
:100900001460B1F800C0BCF1FF0F34DD5468002062
:100910002EE000F1080C4FF0010808FA0CF3B1F8D2
:1009200000C00CEA03069E4221D183004FF00F0C59
:100930000CFA03F7BC4305FA03FC4CEA040491F8F3
:1009400003C0BCF1280F05D100F1080C08FA0CF81F
:10095000C2F8148091F803C0BCF1480F07D100F130
:10096000080C4FF0010808FA0CF8C2F81080401C7F
:100970000828CED35460BDE8F0810000F0B50A46E7
:10098000002300240021002500F00046B6F1004FAE
:1009900002D11D4EF16901E01B4E7168C0F30345A1
:1009A00083B200F44016B6F5401F08D121F0706103
:1009B000154E766826F07066134F7E6012E000F4E4
:1009C0008016B6F5801F06D1032606FA05F4A1436A
:1009D00041F0706106E0460D360103FA06F6B143B8
:1009E00041F0706122B1460D360103FA06F631433B
:1009F00000F00046B6F1004F02D1034EF16101E074
:100A0000014E7160F0BD000000000140416170477F
:100A10000161704710B504460723012221460948A9
:100A2000FFF7D8FD01210748FFF735FE00BF02217F
:100A30000448FFF793FD0028F9D00248FFF78AFD2C
:100A400010BD0000002401402DE9F04107460C468E
:100A50000025002608E03846FFF7DCFF05440520A6
:100A600001F056F8701CC6B2A642F4DBB5FBF4F0F8
:100A700080B2BDE8F08100BFFEE7000010B5402164
:100A80000848FFF7C5FF4FF480710648FFF7C0FF25
:100A90004FF480710348FFF7B9FF40210148FFF789
:100AA000B5FF10BD0020014010B540210648FFF7FA
:100AB000AFFF4FF480710448FFF7A8FF4FF4807137
:100AC0000148FFF7A5FF10BD0020014010B54021EF
:100AD0000348FFF79DFF40210148FFF797FF10BD36
:100AE0000020014008B50121482000F05BFB2020D8
:100AF000ADF8000010208DF8030003208DF80200EF
:100B000069460948FFF7AEFE20210748FFF780FF3E
:100B10002020ADF8000069460448FFF7A3FE20211D
:100B20000248FFF775FF08BD000C014000180140A6
:100B300070B505460C46002D07DD002018490860F9
:100B400001201849C1F8A40106E0012014490860F9
:100B500000201449C1F8A4012846FFF77BFE86B2A5
:100B60003146114800F0C1FD002C08DD00200C4981
:100B70001439086001200D49C1F8BC0107E00120CB
:100B800007491439086000200849C1F8BC01204613
:100B9000FFF760FE86B23146034800F0A4FD70BD49
:100BA00098812242000024420008004000002142B7
:100BB00000BFFEE708B501214FF4927000F0F2FA91
:100BC0000121084600F0EEFA01211148FFF7D6FE98
:100BD00010208DF80300C002ADF8000003208DF84E
:100BE000020069460B48FFF73DFE5220ADF80000B9
:100BF00069460948FFF736FE4FF40070ADF8000073
:100C000069460648FFF72EFE01200549086008BD29
:100C100000043000000801400014014000200140A1
:100C2000908122427047000070B5002100230F22FE
:100C3000C47804B3154C246804F4E064C4F5E0649B
:100C4000210AC1F10403CA40447804FA03F184780C
:100C50001440214309010E4C0678A155047804F094
:100C60001F050124AC4005786D11AD0005F1E025AC
:100C7000C5F8004109E0047804F01F050124AC40E8
:100C8000044D0678761145F8264070BD0CED00E065
:100C900000E400E080E100E002490143024A116003
:100CA000704700000000FA050CED00E070B500246C
:100CB00018E004F1B000002100F0A3F900210220A7
:100CC00000F09FF90021102000F09BF9002505E0BD
:100CD0000121002000F095F9681CC5B2802DF7DBDA
:100CE000601CC4B2082CE4DB70BD000008B5012113
:100CF000080200F057FA4FF4A070ADF80000102081
:100D00008DF8030003208DF8020069463B48FFF789
:100D1000A9FD4FF4A0713A48FFF77AFEC82000F011
:100D2000F7FE0021AE2000F06CF90021022000F057
:100D300068F90021102000F064F90021402000F043
:100D400060F90021B02000F05CF90021812000F062
:100D500058F90021FF2000F054F90021A12000F0F3
:100D600050F90021A62000F04CF90021A82000F045
:100D700048F900213F2000F044F90021C82000F08C
:100D800040F90021D32000F03CF90021084600F092
:100D900038F90021D52000F034F90021802000F03E
:100DA00030F90021D82000F02CF90021052000F0B6
:100DB00028F90021D92000F024F90021F12000F0C9
:100DC00020F90021DA2000F01CF90021122000F0A7
:100DD00018F90021DB2000F014F90021302000F088
:100DE00010F900218D2000F00CF90021142000F0F2
:100DF00008F90021AF2000F004F908BD00200140EF
:100E00000014014070B504460D4605F1B000002104
:100E100000F0F7F8A11CC1F3031141F0100000210C
:100E200000F0EFF8A11C01F00F00002100F0E9F83C
:100E300070BD00002DE9F04180460E4615460027A2
:100E400031464046FFF7DEFF00240AE0124A02EB7B
:100E50008511085D012100F0D4F8781CC7B2601C30
:100E6000C4B2102CF2DB701CC1B24046FFF7CAFFBF
:100E700000240CE06900491C074A02EB4111085D9F
:100E8000012100F0BEF8781CC7B2601CC4B2102C5F
:100E9000F0DBBDE8F0810000460400202DE9F047BA
:100EA00007460E469046994600250024A8F12000EA
:100EB000C5B27F2F02DD0027B01CC6B2B9F1100FFA
:100EC00024D131463846FFF79DFF002408E004EBAB
:100ED0000511194A505C012100F093F8601CC4B25E
:100EE000082CF4DB701CC1B23846FFF78BFF0024DE
:100EF00009E004EB051108310F4A505C012100F0B4
:100F000080F8601CC4B2082CF3DB12E0314638468E
:100F1000FFF778FF00240AE005EB4501074A02EBE2
:100F20004101085D012100F06CF8601CC4B2062C80
:100F3000F2DBBDE8F0870000A62B00087E29000840
:100F40002DE9FF5F074691461E460E9D4FF0000AB1
:100F5000002435E0301B401EC1B20A2001F05EF9CA
:100F6000B9FBF0F00A21B0FBF1F201FB1208BAF173
:100F7000000F14D1701EA04211DDB8F1000F0CD18A
:100F8000AB4605EBDB71491001FB0471C8B22B467F
:100F900020220199FFF782FF10E04FF0010AAB46D3
:100FA00005EBDB71491001FB0471C8B208F1300197
:100FB000CAB22B460199FFF771FF00BF601CC4B293
:100FC000B442C7DBBDE8FF9F2DE9F04104460F4660
:100FD0001546984600260FE0AA5D4346394620464E
:100FE000FFF75CFF04F10800C4B2782C02DD002496
:100FF000B81CC7B2701CC6B2A85D0028ECD1BDE811
:10100000F08170B504460D461DB1E0B200F046FD1A
:1010100002E0E0B200F02CFD70BD000010B586B01B
:1010200004460121480400F0ADF80121042000F03D
:10103000B9F80420ADF8140003208DF8160018202C
:101040008DF8170005A91C48FFF70CFC0820ADF827
:10105000140004208DF8170005A91748FFF702FCBB
:1010600026208DF8000000208DF801008DF8020088
:1010700001208DF803006846FFF7D6FD019400209B
:10108000ADF80800ADF80A00ADF80C00ADF810009E
:101090000C20ADF80E0001A9084800F049FC01221F
:1010A00040F22551054800F01DFC0121034800F0E5
:1010B000E3FB06B010BD0000000801400044004002
:1010C00030B589B004460D460121092000F06AF8C8
:1010D0000121042000F056F818208DF8230040016B
:1010E000ADF8200003208DF8220008A91C48FFF766
:1010F000B9FB05A800F04EFB0020ADF81A00ADF8D2
:101100001600ADF81850ADF8144005A9154800F0C8
:10111000EFFA6020ADF804000020ADF80C000120CB
:10112000ADF806000020ADF80A0001A90D4800F056
:1011300035FA01A90B4800F08BFA0821094800F0A4
:101140007DFA0821074800F0C1FA0121054800F0A6
:10115000EFF90121034800F0FAF909B030BD0000B1
:10116000000C0140000800407047000001460020CC
:10117000034A506820F44040084350607047000024
:101180000010024029B1064AD2690243044BDA61D9
:1011900004E0034AD2698243014BDA6170470000E0
:1011A0000010024029B1064A92690243044B9A6139
:1011B00004E0034A92698243014B9A617047000040
:1011C0000010024029B1064AD2680243044BDA609B
:1011D00004E0034AD2688243014BDA6070470000A2
:1011E0000010024030B500210022002400232D4DC4
:1011F0006D6805F00C0121B1042905D0082923D11F
:1012000005E0294D056022E0274D05601FE0254DD2
:101210006D6805F47012234D6D6805F48034022565
:1012200005EB92421CB9214D554305600BE01D4D65
:101230006D6805F400351DB11C4D5543056002E095
:10124000194D5543056002E0174D056000BF00BF12
:10125000144D6D6805F0F0010909154D6B5C0568CA
:10126000DD4045600F4D6D6805F4E061090A104DE1
:101270006B5C4568DD4085600A4D6D6805F4605122
:10128000C90A0B4D6B5C4568DD40C560054D6D6856
:1012900005F44041890B074D6B5CC568B5FBF3F560
:1012A000056130BD0010024000127A0000093D00C7
:1012B0003204002042040020704710B500F002F80C
:1012C00010BD00000CB5002001900090334800686C
:1012D00040F480303149086000BF3048006800F4B5
:1012E000003000900198401C0190009818B90198B6
:1012F000B0F5A06FF1D12948006800F4003010B1BA
:101300000120009001E0002000900098012843D1C6
:101310002348006840F01000214908600846006832
:1013200020F0030008600846006840F002000860F2
:101330001A484068194948600846406848600846AD
:10134000406840F4806048600846406820F47C10A3
:1013500048600846406840F4E81048600846006865
:1013600040F08070086000BF0C48006800F000701A
:101370000028F9D00948406820F003000749486078
:101380000846406840F00200486000BF03484068DB
:1013900000F00C000828F9D10CBD0000001002403C
:1013A00000200240042808D14FF0E021096941F0F3
:1013B00004014FF0E022116107E04FF0E0210969DC
:1013C00021F004014FF0E0221161704770470000E6
:1013D00010B51348006840F0010011490860084644
:1013E0004068104908400E494860084600680E49A8
:1013F00008400B4908600846006820F48020086017
:101400000846406820F4FE0048604FF41F008860E2
:10141000FFF753FF4FF000600449086010BD000063
:10142000001002400000FFF8FFFFF6FE08ED00E0AC
:1014300010B50121880700F096F818B1012188073E
:1014400000F082F810BD000010B50121134800F033
:101450008AF810B30121114800F076F801201049F4
:10146000087010480078401C0E4908700846007843
:10147000052804DB0020087001200B4908700B4888
:101480000078401C09490870084600780A2804DBE7
:101490000020087001200649087010BD00040040BB
:1014A0000F0A00200D0A0020100A00200E0A00205A
:1014B000110A00207FB505460C4601210220FFF7E6
:1014C00061FEADF80850ADF804400020ADF80A0008
:1014D000ADF8060001A90E4800F00AF901221146F4
:1014E0000B4800F051F81D208DF8000000208DF809
:1014F000010003208DF8020001208DF803006846EA
:10150000FFF792FB0121024800F021F87FBD0000A7
:101510000004004010B50121044800F024F818B17F
:101520000121024800F010F810BD00000008004042
:1015300021B1028842F08002028004E002884FF666
:101540007F731A4002807047CA430282704721B1FC
:10155000028842F00102028004E002884FF6FE7326
:101560001A400280704730B5024600200023002454
:10157000158A05EA0103958905EA010413B10CB146
:10158000012000E0002030BD1AB183890B43838124
:1015900002E083898B4383817047000070B500248B
:1015A00000220023058C4FF6FF6635400584028C2F
:1015B0008388848B4FF68F752C404FF6FC752C403A
:1015C0000D882C434FF6FF552A400D894FF6FF76C4
:1015D00006EA05252A434D8806EA05252A43154DC6
:1015E000A84202D0144DA8421DD14FF2FF752A40E7
:1015F0004D894FF6FF7606EA05252A434FF6FF355B
:101600002A408D8806EA05252A434EF6FF752B40B1
:101610004DF6FF752B408D8906EA05152B43CD89C4
:1016200006EA05152B4383808483CD888587028451
:1016300070BD0000002C0140003401400A4600212A
:10164000818B4FF6F7731940114381837047000077
:1016500070B5002200230024058C4EF6FF7635403D
:101660000584038C8488828B48F6FF752A404FF6E8
:10167000FF452A400D884FF6FF7606EA05252A43E6
:101680004DF6FF752B400D8906EA05352B434D8835
:1016900006EA05352B430B4DA84202D00A4DA8425D
:1016A00008D14BF6FF752C408D894FF6FF7606EA80
:1016B00085152C4384808283CD88A0F84050038414
:1016C00070BD0000002C0140003401400A4600219A
:1016D000818B4FF2FF7319404FF6FF7303EA022329
:1016E00019438183704781877047A0F84010704785
:1016F000002202881D4B98420ED01D4B98420BD001
:10170000B0F1804F08D01B4B984205D01A4B98423D
:1017100002D01A4B984204D14FF68F731A404B886F
:101720001A43174B984207D0164B984204D04FF6F5
:10173000FF431A40CB881A4302808B8883850B882D
:1017400003850A4B98420BD0094B984208D00E4BA8
:10175000984205D00D4B984202D00D4B984201D1D2
:101760000B7A03860123838270470000002C01401E
:10177000003401400004004000080040000C00401C
:1017800000100040001400400040014000440140AF
:10179000004801404FF6FF71818000210180C18027
:1017A000418001727047000010B540F225511D487C
:1017B00000F06EF810B31B4800F026F9C4B21A48C6
:1017C000008800F40040C8B91748008800F4804041
:1017D00060B10A2C03D000201349088020E0124891
:1017E000008840F400401049088019E00D2C06D113
:1017F0000D48008840F480400B49088010E00A48FA
:101800000088C0F30D0009490C5407480088401CAB
:101810000549088008460088C72801DD00200880A7
:1018200010BD00000038014030040020140A0020E0
:1018300010B540F22551054800F02AF820B10348C0
:1018400000F0E2F80249087010BD000000440040BA
:101850000C0A002010B540F22551054800F018F898
:1018600020B1034800F0D0F80249087010BD000014
:10187000004800400C0A002021B1828942F4005245
:10188000828104E082894DF6FF731A40828170479D
:1018900070B50246002400230025002040F66A1699
:1018A000B14200D100BFC1F3421501F01F03012670
:1018B00006FA03F3012D02D19689334006E0022D8A
:1018C00002D1168A334001E0968A33400C12012679
:1018D00006FA04F41688344013B10CB1012000E07C
:1018E000002070BDF0B5034600240026002500202E
:1018F00040F66A17B94200D100BF1846C1F342143E
:1019000001F01F06012707FA06F5012C01D10C3062
:1019100004E0022C01D1103000E014301AB1076845
:101920002F43076002E00768AF430760F0BD000087
:101930002DE9F04786B005460E460024A24600BFBA
:10194000A1460027B08900B100BF2F462C8A4CF673
:10195000FF700440F08804432C82AC894EF6F310EB
:101960000440B08831890843718908430443AC813D
:10197000AC8A4FF6FF400440B0890443AC8201A812
:10198000FFF730FC1F48874202D1DDF810A001E0CC
:10199000DDF80CA0A88900F4004040B10AEBCA00B1
:1019A00000EB0A1031684900B0FBF1F807E00AEBE0
:1019B000CA0000EB0A1031688900B0FBF1F864201E
:1019C000B8FBF0F004012009642101FB1089A8890B
:1019D00000F4004040B1322000EBC900B0FBF1F050
:1019E00000F00700044308E0322000EB09106421F6
:1019F000B0FBF1F000F00F0004432C8106B0BDE80D
:101A0000F08700000038014001468888C0F30800D4
:101A1000704700BFFEE700002DE9F04105462C4667
:101A200040211248FEF7F2FF00261AE0274607F091
:101A30008007802F04D179000C48FEF7E9FF04E00D
:101A40004FF480710948FEF7E1FF6006040E402163
:101A50000648FEF7DDFF40210448FEF7D7FF701C63
:101A6000C6B2082EE2DBBDE8F08100000020014094
:101A700010B50446FFF702F87820FFF7CDFFFFF717
:101A800025F80020FFF7C8FFFFF720F82046FFF7F2
:101A9000C3FFFFF71BF8FFF707F810BD10B50446AA
:101AA000FEF7ECFF7820FFF7B7FFFFF70FF84020B5
:101AB000FFF7B2FFFFF70AF82046FFF7ADFFFFF789
:101AC00005F8FEF7F1FF10BD00BF704710B56FF0CD
:101AD0000400FFF767FC0A4800680A49B0FBF1F010
:101AE000094908700846007800EB4001C1EBC010BE
:101AF0004FF6FF7101EAC0000449088010BD0000E4
:101B00001804002000127A002C0400202E0400206B
:101B10000146114A12884A434FF0E0235A610022DD
:101B20009A611A46126942F001021A6100BF4FF031
:101B3000E022106900F001021AB100F48032002A9C
:101B4000F5D04FF0E022126922F001024FF0E023BD
:101B50001A6100229A6170472E04002000BF054AD6
:101B6000128802F04002002AF9D0C2B2014B1B1DBC
:101B70001A8070470048004008B54FF4A060FFF796
:101B80008BF84FF4E130FEF7DDFD4FF4E130FFF765
:101B900045FAFFF79BFFFEF78FFD41F61F4100203E
:101BA000FFF78EFAFFF706F841F61F4140F2E730E3
:101BB000FFF780FCFEF796FFFEF71CFEFFF796F896
:101BC000FFF774F8132203210020FFF733F91422E2
:101BD00003211020FFF72EF9152203212020FFF703
:101BE00029F9162203213020FFF724F91023FEA241
:101BF00003214020FFF7E8F9082206210020FFF723
:101C000019F9092206211020FFF714F91023F8A270
:101C100006212020FFF7D8F90A210120FEF714FF42
:101C2000F44908800846008800F0EEFC824600F087
:101C300031FC06464FF06632EF4B00F02DFB0446B8
:101C40000022EE4B00F028FB804600F0F3FAEC494E
:101C50000860A6E2EB48007808B30020E949087064
:101C6000E94800780A2803D10020E849087016E006
:101C7000E5480078012809D1E548007801280ED10F
:101C8000E2480078401CE149087008E0DE4800782E
:101C9000022804D0DC480078032800D000BFDD48CB
:101CA000007800285ED00020DA4908700A2101205F
:101CB000FEF7CAFECF4908800846008800F0A4FC61
:101CC000824600F0E7FB80464FF06632CA4B00F0D8
:101CD000E3FA06460022C94B00F0DEFA044600F0A3
:101CE000A9FACD490860C6480168CB48006800F0F1
:101CF000D1FDC9490860C949C748006800F098FD8E
:101D000002D2C748C4490860C348006800F05CFCC0
:101D1000C4490870C449C048006800F0BDFC0446CE
:101D200000F052FC80B20A2190FBF1F201FB12009C
:101D3000BE490870102002230090BA48027803219F
:101D40005020FFF7FDF810232E2203216020FFF71B
:101D5000A5F8102001230090B448027803216820E0
:101D6000FFF7EEF8B248007810B10020B0490870D3
:101D7000A54800780A2805D10020AE490880AE4960
:101D80000880CEE0A0480078012874D1AB480078E4
:101D900058B90120A9490870A9499F48006800F076
:101DA00047FD02D80120A7490870A64800780028FE
:101DB000E7D097480078002841D1A348006801285F
:101DC00009D1A2480068012805D14FF4FA60994969
:101DD0000880994908809C48006818B940F634008A
:101DE000944908809948006818B940F6340092492F
:101DF000088097480068012803D140F6C4108D4937
:101E0000088094480068012803D140F6C4108A492C
:101E10000880904800680128B3D18B4800680128E9
:101E20007FD18A48006801287BD189480068012851
:101E300077D177480078401C7549087071E0744884
:101E4000007801285AD171480078052808DA4FF641
:101E50003000784908804FF4FA607749088060E0E4
:101E60006A480078062807DA4FF4FA60714908805A
:101E70007149088055E04BE073480068012809D19A
:101E800072480068012805D14FF4FA60694908805A
:101E9000694908806C48006818B940F63400654903
:101EA00008806A48006818B940F634006249088022
:101EB00067480068012803D140F6C4105D490880D6
:101EC00064480068012803D140F6C4105A490880CC
:101ED00060480068012824D15B480068012820D1AF
:101EE0005A48006801281CD159480068012818D1B7
:101EF00047480078401C4649087012E04448007882
:101F000002280ED100204B4908804B49088008E088
:101F10003D480078022804D03B480078032800D0D0
:101F200000BF4548B0F900104248B0F90000FEF784
:101F3000FFFD35480078484909784840002851D0CD
:101F400031480078444908702F4800780A2827D182
:101F5000002211461046FEF76DFF012200211020DD
:101F6000FEF768FF022200212020FEF763FF032214
:101F700000213020FEF75EFF042200214020FEF702
:101F800059FF052200215020FEF754FF102333A2F1
:101F900000216020FFF718F832A0FEF75DF97BE022
:101FA000022200210846FEF745FF032200211020EF
:101FB000FEF740FF042200212020FEF73BFF052210
:101FC00000213020FEF736FF10232BA200214020F5
:101FD000FEF7FAFF1020012300900B480278002141
:101FE00050204BE059E000003A20202020206700DC
:101FF0003A0000000E04002066664A3F0000494097
:10200000080400200F0A00200C0A002017040020FA
:1020100016040020100A0020040400200000C8421A
:10202000CDCCC7420C040020000020410D0400204C
:10203000110A0020100400201204002015040020C2
:102040000000A0411404002038812142088122426E
:10205000280122422C012142000400202E2E2E2E87
:1020600000000000B5C8B4FDCAB6B1F0BDE1B9FBCF
:102070002E2E2E2E0A0000003A200000FEF760FFF0
:10208000102348A200215820FEF79EFF4748017800
:1020900047A0FEF7E1F800BF00BF49480078494972
:1020A0000978484000287CD04548007845490870A8
:1020B0004348007830B1012822D0022839D00328C3
:1020C0006ED154E00A2206213020FEF7B3FE0B2227
:1020D00006214020FEF7AEFE082206215020FEF722
:1020E000A9FE092206216020FEF7A4FE102336A2D5
:1020F00006217020FEF768FF34A0FEF7ADF84FE030
:102100000C2206213020FEF795FE0D2206214020EC
:10211000FEF790FE0E2206215020FEF78BFE1023C4
:102120002EA206216020FEF74FFF2DA0FEF794F8A7
:1021300036E0002206213020FEF77CFE0122062137
:102140004020FEF777FE0F2206215020FEF772FE98
:10215000102206216020FEF76DFE10231AA2062130
:102160007020FEF731FF23A0FEF776F818E0112269
:1021700006213020FEF75EFE122206214020FEF7E7
:1021800059FE0E2206215020FEF754FE102313A202
:1021900006216020FEF718FF1BA0FEF75DF800BFC8
:1021A00000BF57E520202020200000000C0A00205E
:1021B000CAB6B1F0BDE1B9FBA3BA25640A000000BC
:1021C00001040020020400202E2E0000D7B4CCAC65
:1021D000A3BACDA3D6B9A3A10A0000002E2E2E00CB
:1021E000D7B4CCACA3BAD4CBCAE4D6D02E2E2E0A08
:1021F00000000000D7B4CCACA3BAB5C8B4FDD0B6CB
:10220000BBF52E2E2E0A0000D7B4CCACA3BAB7B5BE
:10221000B3CCD6D02E2E2E0A0000000010B50246F8
:10222000012000E050430B1EA1F10104E1B2F9D1FD
:1022300010BD000021F00042A2F16052B2F5801FF3
:1022400001F0004328BFD2F17F6C0BD95FEA001C7C
:1022500043EAC20242EB507018BF704728BF20F01B
:1022600001007047B2F5801FBCBF184670474FEAA7
:10227000410C1CF5001F02D2084600F0D4BA70B51C
:1022800000F0B4F800000089FFF7F6BF4FF00040FF
:10229000A0F5800070470000DFF848C170B51CEA67
:1022A000111E1EBF1CEA13159EEA0C0F95EA0C0FB7
:1022B00000F06F8081EA030423EA4C134EEAD47ED7
:1022C00021EA4C1141F4801143F48013AE44A1FB88
:1022D000024CA0FB0365AEF17F7E361955EB0C0571
:1022E000A1FB034C4CF10003A0FB021C16EB0C06F7
:1022F000654153F10003094218BF46F0010613F48B
:10230000007F0BD14FEA03314FEA0530340341EA35
:10231000155140EA16506FF003020AE04FEAC3215C
:102320004FEAC520F40241EA555140EA56506FF099
:10233000020202EB2E4201EB025585EACE710AD071
:102340005FEA440C18BF24F0004450F1000041F152
:10235000000120EAD47040F2FE7C624500D270BDDC
:10236000A84214BF4FF080444FF04044002E08BFF5
:102370000024BEF1806FA8BFA1F1C041BDE870404C
:1023800080F282804FF0000001F1C04101F0004175
:1023900070479EEA0C0F0CEA131518BF95EA0C0F54
:1023A00006D04FF0000081EA030E0EF0004170BD30
:1023B00000F01CF88900013E00F007B800F009B8F1
:1023C0004FEA430C5FEA5C5C08D081EA030100F04D
:1023D0005BB84FEA410C5FEA5C5CF6D14FF000005D
:1023E000014970470000FF070000F87F0EF1020E60
:1023F0002EF0030E5EF8046B364205D4012A43EB3F
:10240000030515F5001F12D8012841EB010C1CF53E
:10241000001F0CD80ED14FEAD17C15F5001F0CEB34
:102420004C0C0CF1020C08BF4CEBD37C04E04FF0D9
:10243000080C01E04FEAD37C0CEB4C0526FA05F6BC
:1024400006F00706B6F1040C06D20EEB860CBDE8CA
:1024500070404CF0010C6047DFE80CF0090B020201
:102460004FF000414FF00000A1F5002170BD19466A
:102470001046012851EB010418BFD4F5001484BFA5
:10248000002001F0004170BD0808A0F500114FEADE
:102490003101704743004FEAD30C4FEA3C0C4340F4
:1024A0001FBF40070CF1605113F0FE4F70471CF046
:1024B000006F03D100200CF0004170470CF0004386
:1024C00043EA507010B540EACC0000F066F900BF56
:1024D000000000924FEA0001FFF7D6BF4FF0004125
:1024E0004FF00000A1F500217047000090EA010FB5
:1024F00048BF81F0004100F1D481421A3CBF801AEC
:1025000089184FEAD0524FF07F4C1CEA410FA2EBE2
:10251000D15318BF9CEA026F00F03B804FF0004C93
:102520004CEA00204CEA012121FA03FC10EB0C0CD0
:102530001ED202F1FF325FEA1C2040EBC25038BFCE
:1025400070471CF07F0F4FEA400C18BFBCF17F4F63
:1025500038BF7047C3F12003994008BF20F0010045
:10256000BCF17F4F38BF7047A0F1C04000F05BB9AD
:102570004FEA3C00000A40EBC25028BF1CF0FF0F9E
:102580004FEA400CE6D018BFBCF17F4F38BF704710
:10259000EAE79CEA026F05D010EA5C0F08BF00F082
:1025A0000040704710B500F0F8F800BF64FBBE3E75
:1025B000401058BFC0F14040491058BFC1F14041E0
:1025C0008142EFF300807047C10DD1F19E0206DB1E
:1025D0004FEA002343F0004323FA02F07047004221
:1025E00007D54FEA4001B1F1FE4F02D24FF0000093
:1025F000704710B500F0D1F8499224800020704750
:102600006FEA200070470000B0FA80F310FA03F27E
:10261000C3F19D030AD0D90501EB1220530638BF40
:10262000704700F1010008BF20F001007047000072
:1026300050EA010C00F113801CF5000F58BFBCF5E7
:10264000000F01D48842704707D710F5000F58BF1C
:1026500011F5000F15D488427047894270471CF568
:10266000000F04D5BCF5000FF7D5814270474FF03D
:10267000807C1CEB400F38BF1CEB410F01D2814224
:10268000704710B500F089F8922449004FF00050CF
:102690004FF08051FFF78CBF4FF47F0C1CEAD01233
:1026A0001EBF1CEAD11392EA0C0F93EA0C0F00F044
:1026B000478090EA010F48BF42F480724FF0004C0F
:1026C0004CEA00204CEA012102EB0302A0FB0113BB
:1026D000A2F50002002918BF43F001035B0028BFE8
:1026E0004FEA330342EB22425FEA132C4CEBC25019
:1026F0002EBFBCEB436FB2F57C0F70474FEA036C03
:10270000BCF1004F08BF20F00100B2F57C0F38BFCC
:1027100070470BD582F0FF0212F5803FC8BF7047AB
:1027200000F1C040D8BF00F00040704700F5000C39
:102730005FEA4C0C48BF7047B0F1C04000F073B87E
:1027400090EA010F0CEAD11348BF42F4807262454F
:1027500038BF634504D280EA010000F000407047B2
:1027600010B500F01AF800BF8900013E00F007B86C
:1027700000F009B85FEA410C5FEA1C6C08D080EAFF
:10278000010000F050B85FEA400C5FEA1C6CF6D123
:102790004FF00040A0F5800070470EF1020E2EF0C1
:1027A000030E5EF8044B244204D44FEA4102B2F116
:1027B0007F4F11D84FEA4003B3F17F4F0CD80ED1B1
:1027C0004FEAD07CB2F17F4F0CEB4C0C0CF1020CB9
:1027D00008BF4CEBD17C04E04FF0080C01E04FEA5D
:1027E000D17C0CEB4C0324FA03F404F00704B4F19D
:1027F000040C06D20EEB840CBDE810404CF0010C2A
:102800006047DFE80CF0070802024FF00040A0F537
:10281000800010BD0846420018BFD2F1807288BF08
:1028200000F0004010BDFF2141EAD050C0057047C4
:1028300051EA000C00F113801CF5000F58BFBCF5E5
:10284000000F01D48142704707D711F5000F58BF20
:1028500010F5000F15D481427047894270471CF56E
:10286000000F04D5BCF5000FF7D5884270474FF034
:10287000807C1CEB410F38BF1CEB400F01D288421B
:10288000704780EA010081EA000180EA0100FFF759
:10289000F8BE000090EA010F48BF81F000413FF50B
:1028A0002CAE421A04D882F00042A0EB0200114480
:1028B0004FEAD0524FF07F4C1CEA410FA2EBD153AC
:1028C00018BF9CEA026F4AD04FF0004C4CEA00203F
:1028D0004CEA012121FA03FCB0EB0C0C0FD412F0EE
:1028E000FE0F36D05FEA4C001DD5001240EBC250FF
:1028F00038BF70471CF03F0F18BF70470BE0A2F1C4
:1029000001025FEA1C2040EBC25038BF70471CF048
:102910007F0F18BF7047C3F12003994014BF401EBA
:1029200020F00100704780084FEA122308BF70476B
:10293000B0FA80FCA2EB0C02CCF1280C60FA0CF08F
:1029400093EA122F04BF00EBC25070474FEAC370E6
:102950007047130A5FEADC1008BF7047F6E79CEA8D
:10296000026F04D010EA5C0F08BF0020704710B55A
:10297000FFF713FF40DFF63E81F000407047000094
:10298000000000000000002F00000000070007000A
:1029900000147F147F1400242A7F2A120062640826
:1029A00013230036495522500000050300000000A3
:1029B0001C224100000041221C000014083E0814A3
:1029C0000008083E0808000000A060000008080891
:1029D0000808000060600000002010080402003EAB
:1029E0005149453E0000427F400000426151494646
:1029F000002141454B31001814127F100027454536
:102A00004539003C4A494930000171090503003647
:102A10004949493600064949291E0000363600005A
:102A2000000056360000000814224100001414145F
:102A3000141400004122140800020151090600325A
:102A40004959513E007C1211127C007F4949493698
:102A5000003E41414122007F4141221C007F494903
:102A60004941007F09090901003E4149497A007F37
:102A70000808087F0000417F4100002040413F01DD
:102A8000007F08142241007F40404040007F020C3C
:102A9000027F007F0408107F003E4141413E007FDD
:102AA00009090906003E4151215E007F09192946A6
:102AB0000046494949310001017F0101003F404082
:102AC000403F001F2040201F003F4038403F006330
:102AD0001408146300070870080700615149454352
:102AE00000007F41410000552A552A550000414110
:102AF0007F0000040201020400404040404000000A
:102B000001020400002054545478007F48444438A3
:102B100000384444442000384444487F003854542A
:102B2000541800087E0901020018A4A4A47C007FA8
:102B3000080404780000447D4000004080847D004B
:102B4000007F102844000000417F4000007C0418F2
:102B50000478007C0804047800384444443800FCBD
:102B6000242424180018242418FC007C08040408D9
:102B700000485454542000043F444020003C40404E
:102B8000207C001C2040201C003C4030403C004485
:102B900028102844001CA0A0A07C004464544C448D
:102BA00014141414141400000000000000000000AD
:102BB000000000000000000000F80000000000001D
:102BC00000333000000000100C06100C060000005E
:102BD00000000000000040C07840C0784000043F82
:102BE00004043F040400007088FC08300000001852
:102BF00020FF211E0000F008F000E0180000002176
:102C00001C031E211E0000F00888700000001E2119
:102C100023241927211010160E00000000000000C8
:102C2000000000000000000000E0180402000000A6
:102C300000071820400000020418E00000000040D7
:102C4000201807000000404080F080404000020251
:102C5000010F01020200000000F00000000001016D
:102C6000011F01010100000000000000000080B011
:102C700070000000000000000000000000000001E3
:102C8000010101010101000000000000000000300E
:102C900030000000000000000000806018040060A8
:102CA00018060100000000E010080810E000000F06
:102CB000102020100F00001010F80000000000206D
:102CC000203F2020000000700808088870000030B5
:102CD000282422213000003008888848300000185D
:102CE000202020110E000000C02010F80000000776
:102CF0000424243F240000F80888880808000019EC
:102D0000212020110E0000E0108888180000000F1C
:102D1000112020110E0000380808C83808000000F3
:102D2000003F000000000070880808887000001C48
:102D3000222121221C0000E010080810E000000001
:102D4000312222110F00000000C0C000000000006E
:102D50000030300000000000008000000000000093
:102D6000806000000000000080402010080000018A
:102D7000020408102000404040404040400004044D
:102D80000404040404000008102040800000002017
:102D9000100804020100007048080808F000000054
:102DA000003036010000C030C828E810E0000718E5
:102DB000272423140B000000C038E0000000203C52
:102DC00023020227382008F8888888700000203FF6
:102DD000202020110E00C03008080808380007180D
:102DE00020202010080008F808080810E000203F04
:102DF000202020100F0008F88888E8081000203FE5
:102E000020202320180008F88888E8081000203FB8
:102E1000200003000000C030080808380000071830
:102E20002020221E020008F808000008F808203FB1
:102E3000210101213F20000808F8080800000020B7
:102E4000203F2020000000000808F8080800C0808B
:102E500080807F00000008F888C028180800203F04
:102E600020012638200008F8080000000000203F5C
:102E700020202020300008F8F800F8F80800203F53
:102E8000003F003F200008F830C00008F808203F4D
:102E9000200007183F00E01008080810E0000F109D
:102EA000202020100F0008F808080808F000203F34
:102EB000210101010000E01008080810E0000F18CF
:102EC000242438504F0008F8888888887000203FF4
:102ED0002000030C302000708808080838000038F3
:102EE000202121221C00180808F8080818000000FA
:102EF000203F2000000008F808000008F808001F24
:102F0000202020201F000878880000C83808000012
:102F100007380E010000F80800F80008F800033C2C
:102F20000700073C030008186880806818082030F4
:102F30002C03032C30200838C800C83808000000D3
:102F4000203F2000000010080808C838080020387A
:102F5000262120201800000000FE020202000000CE
:102F6000007F40404000000C30C000000000000026
:102F700000010638C00000020202FE00000000400E
:102F800040407F0000000000040202020400000034
:102F90000000000000000000000000000000808031
:102FA0008080808080800002020400000000000019
:102FB00000000000000000008080808000000019F8
:102FC000242222223F2008F8008080000000003FD9
:102FD000112020110E000000008080800000000EF3
:102FE000112020201100000000808088F800000ED1
:102FF000112020103F200000808080800000001FF2
:10300000222222221300008080F088888818002065
:10301000203F202000000000808080808000006B26
:1030200094949493600008F8008080800000203F12
:10303000210000203F200080989800000000002020
:10304000203F20200000000000809898000000C071
:103050008080807F000008F8000080808000203F92
:1030600024022D302000000808F800000000002095
:10307000203F202000008080808080808000203FD2
:1030800020003F20003F8080008080800000203FA3
:10309000210000203F200000808080800000001F71
:1030A000202020201F00808000808000000080FF02
:1030B000A12020110E000000008080808000000E02
:1030C000112020A0FF808080800080808000202050
:1030D0003F212000010000008080808080000033BC
:1030E000242424241900008080E080800000000057
:1030F000001F202000008080000000808000001F52
:10310000202020103F2080808000008080800001EF
:103110000E300806010080800080008080800F3023
:103120000C030C300F0000808000808080000020A5
:10313000312E0E31200080808000008080808081D0
:103140008E70180601000080808080808000002141
:10315000302C2221300000000000807C02020000A0
:103160000000003F404000000000FF0000000000A1
:103170000000FF0000000002027C80000000004010
:10318000403F0000000000060101020204040000AC
:103190000000000000000000B8310008000000201E
:1031A000140A00006C0100084C350008140A0020C5
:1031B0002C070000C80100081116060AFE0AC612F4
:1031C000E012F062F84EFE7DBBC7EF01053EC7BBC3
:1031D0007DFE300D080CFEFE0C082060FEFE602017
:1031E0008F7848FE82BABA0309135EAA0101017EF4
:1031F0006CFEFF0301CBFFFF0F39BBECC0C0C02743
:103200001918F92701392975990B6CFFFF0C014931
:103210001A0C22E1E1E12701396C0F1F1801FB1F95
:103220000F0F092E270136168C4222120C26FC02A3
:103230000202FC3304FE16205844FE402A100159B5
:1032400012491E4912A92A0123300A24A42E24E47B
:10325000242EA424C00AF84A4C48F8484C4AF82ABC
:1032600001013907490D5915991F9918091412714F
:103270002BC020A1AB20C00A11300A120A07027F1E
:1032800002070A121E0B0A0A0A7F0402560B980A4A
:103290001F2040404050205F800A1A010201157C27
:1032A000A24A04D1A00802030406070809291269EA
:1032B00016280E0204060808042322262A22FA24CD
:1032C0000703110202180C010909091969090949C2
:1032D000897D0A091172000F111088C433404848D3
:1032E000487F48C848484013020112FF08091102EC
:1032F0000A320242827F026035404042CC2BFC04FD
:10330000010215FC000D123F10884023190101092C
:103310001123C020083E22E22222223E22F802127D
:10332000FF20098141310F4181413F05120F40804B
:103330007F38082030AC63201808C10411484808C1
:10334000172267221212122BFE42010215FE3DFEC9
:1033500092929204011400101444442425140C0485
:10336000FF040C142524444432E029BA04122040FE
:10337000802408040369BA0B11010E21380888481B
:1033800028180FE8080109111F2B0809013AFF0648
:1033900009132112301BFF200119050411222C20D2
:1033A000080D1304040201FF8040300E010618A12D
:1033B000000E120484844424548F1424448484040E
:1033C000234139000C113C4040424C4040700409FC
:1033D00031158060F8070809110474545556545487
:1033E00074402112FF000C1403010545857D05057D
:1033F0000501032AF0252A4001011319165A7F04FA
:10340000091322199B12CC080A12202222A262223E
:1034100022222041080D10201F20444E45444444E0
:1034200045464C4000101188681FC80810C8545207
:10343000D1129408D01016091909FF0515FF129230
:10344000FF0C135F807FBF1A10012AFF0529C901F5
:10345000121B0F04012AFF0502130F1E10484744D8
:10346000FC9D111AFC210212FC100920603E201F55
:1034700012121012FF0B110810411E2010087C03BD
:103480007C07133F4848444470000E1280809F41DF
:1034900041211D0121215F408025404042CC00098F
:1034A00013FC24A4242222A362000F1140201F2019
:1034B00058475048454245485040172424A4FE230D
:1034C000222B3E220102123E180C080601FF0106C3
:1034D000404949497F040A10415F000E123C10FF29
:1034E000101020108F7808F808F8000F1502060257
:1034F000FF0101044221184681403F4B7E420102F8
:10350000157E1AFE1A9AFE08F1081010101014D435
:10351000545454FC525252D3121010A01808405068
:10352000575555557F040511575040404E202020D7
:10353000BEAA011ABE0C01121C8080AF1C1AFF0427
:0C3540000418AF8080420A220100000045
:0400000508000215D8
:00000001FF
